:020000040000FA
:10000000F928A800F839A000A00CA00C200C840747
:100010006520A8000005F4289818181218162C0856
:10002000A0002D08A100A201A30116281728640032
:100030008C1A2D28FF30A207031CA307031CA0075E
:10004000031CA107031C0800220F1528230F1628E4
:100050003230A2000030A30017281A080314F42835
:10006000040864000C1E312899000314F428B3130B
:1000700029080319B3170530A8002730A300103052
:100080004D200330A300E8304D20A30164304D2003
:10009000A3010A304D2024085428A2002508A100FD
:1000A0002408A000BD202008A000A8030319B31352
:1000B000290803195E282802031808002008031DD8
:1000C000B313B31B0800303EEF2800308A00280825
:1000D00007396D3E03188A0A820001340234043461
:1000E0000834103420344034803483178001840A6B
:1000F000FF3E031D7628F428A301A200FF30A207CB
:10010000031CA307031CF4280330A100DF308A205E
:100110007E28A101E83EA000A109FC30031C932821
:10012000A00703189028A0076400A10F90282018AA
:100130009928A01C9D2800009D280800A2000230DC
:10014000A628A2000330A628A2000530A800230894
:100150002102031DAD2822082002043003180130BB
:10016000031902302805031DFF30F4280038031D51
:10017000FF300405031DFF30F428A501A401103051
:10018000A600210DA40DA50D2208A4022308031C1E
:10019000230FA5020318D3282208A4072308031855
:1001A000230FA5070310A00DA10DA60BC128200841
:1001B000F4281030A800A101A001A70CA60C031C74
:1001C000E7282208A00723080318230FA107A10C82
:1001D000A00CA50CA40CA80BDD282408F42884008E
:1001E00031088A00300882008313031383126400ED
:1001F0000800831633309900203098008312903025
:10020000980083160630870061308F008312031731
:100210009E019F0183160313950183120317950115
:1002200083160313960183128B018316B13081006C
:100230008312031795309900A5309A009B0183160D
:10024000F0309E00831287309800031385018316D7
:1002500004308500831286018316203086008312C5
:1002600087016010E0106011E011203084006030E0
:100270008A017620A030840050308A017620203018
:10028000840050308A0175201430D600D701E01464
:100290008A114C29E01460158A115129E014601567
:1002A000E0158713871207138512851006120510B3
:1002B000D401D501DE0164000A305E028A11031800
:1002C0006D290230850683168510643083128A01F9
:1002D0007C20DE0A8A11031D5B298510DE01640083
:1002E0000A305E028A1103188129103086068316AF
:1002F0000612643083128A017C20DE0A8A11031DF3
:100300006F290612DE0164000A305E028A110318AA
:1003100095290130850683160510643083128A0101
:100320007C20DE0A8A11031D832905108A1571219C
:100330000D308A0131200A308A0131200D308A01C6
:1003400031200A308A01312043308A01312048307F
:100350008A01312031308A0131203A308A0131203E
:10036000A901003085180130A400A5013030B0008B
:10037000B1018A0137202C308A01312043308A01B3
:10038000312048308A01312032308A0131203A3020
:100390008A013120A9010030061A0130A400A5010C
:1003A0003030B000B1018A0137202C308A01312071
:1003B00043308A01312048308A01312033308A01AC
:1003C00031203A308A013120A9010030051801306E
:1003D000A400A5013030B000B1018A0137202C30D3
:1003E0008A01312043308A01312048308A0131208E
:1003F00034308A0131203A308A013120A90100309D
:10040000851A0130A400A5013030B000B1018A0185
:1004100037200D308A0131200A308A013120DD0178
:10042000603084005D08003E8A0101200030031D19
:100430000130D800D9015808A0005908A100A30133
:1004400000308A019E208A11031DBC2A8A15A5202E
:100450005D08503E84000008D80064005808013C44
:100460008A11031DBC2A203085068316851264007C
:100470008A118312851E7D2A43308A01312048303B
:100480008A01312030308A0131203A308A0131200E
:1004900031308A0131200D308A0131200A308A0141
:1004A000312043308A01312048308A0131203030F8
:1004B0008A0131203A308A01312031308A013120DD
:1004C0000D308A0131200A308A01312043308A01FF
:1004D000312048308A01312030308A0131203A30D1
:1004E0008A01312031308A0131200D308A013120DA
:1004F0000A308A0131208A11BC2A43308A01312016
:1005000048308A01312030308A0131203A308A0166
:10051000312030308A0131200D308A0131200A30FB
:100520008A01312043308A01312048308A0131204C
:1005300030308A0131203A308A01312030308A014E
:1005400031200D308A0131200A308A0131204330B8
:100550008A01312048308A01312030308A0131202F
:100560003A308A01312030308A0131200D308A0141
:1005700031200A308A0131200130DD0060308400F2
:100580005D08003E8A0101200030031D0130D800C3
:10059000D9015808A0005908A100A30100308A0120
:1005A0009E208A11031D6C2B8A15A5205D08503EE4
:1005B00084000008D80064005808013C8A11031D1B
:1005C0006C2B023085068316851064008A11831215
:1005D000851C2C2B43308A01312048308A01312080
:1005E00031308A0131203A308A01312031308A019C
:1005F00031200D308A0131200A308A013120433008
:100600008A01312048308A01312031308A0131207D
:100610003A308A01312031308A0131200D308A018F
:1006200031200A308A01312043308A01312048309C
:100630008A01312031308A0131203A308A0131205B
:1006400031308A0131200D308A0131200A308A018F
:10065000312087178A116C2B43308A0131204830B2
:100660008A01312031308A0131203A308A0131202B
:1006700030308A0131200D308A0131200A308A0160
:10068000312043308A01312048308A013120313015
:100690008A0131203A308A01312030308A013120FC
:1006A0000D308A0131200A308A01312043308A011D
:1006B000312048308A01312031308A0131203A30EE
:1006C0008A01312030308A0131200D308A013120F9
:1006D0000A308A01312087130230DD006030840047
:1006E0005D08003E8A0101200030031D0130D80062
:1006F000D9015808A0005908A100A30100308A01BF
:100700009E208A11031D1C2C8A15A5205D08503ED1
:1007100084000008D80064005808013C8A11031DB9
:100720001C2C103086068316061264008A11831270
:10073000061EDC2B43308A01312048308A013120EB
:1007400032308A0131203A308A01312031308A0139
:1007500031200D308A0131200A308A0131204330A6
:100760008A01312048308A01312032308A0131201B
:100770003A308A01312031308A0131200D308A012E
:1007800031200A308A01312043308A01312048303B
:100790008A01312032308A0131203A308A013120F9
:1007A00031308A0131200D308A0131200A308A012E
:1007B000312087168A111C2C43308A0131204830A1
:1007C0008A01312032308A0131203A308A013120C9
:1007D00030308A0131200D308A0131200A308A01FF
:1007E000312043308A01312048308A0131203230B3
:1007F0008A0131203A308A01312030308A0131209B
:100800000D308A0131200A308A01312043308A01BB
:10081000312048308A01312032308A0131203A308B
:100820008A01312030308A0131200D308A01312097
:100830000A308A01312087120330DD0060308400E5
:100840005D08003E8A0101200030031D0130D80000
:10085000D9015808A0005908A100A30100308A015D
:100860009E208A11031DCC2C8A15A5205D08503EC0
:1008700084000008D80064005808013C8A11031D58
:10088000CC2C013085068316051064008A11831272
:10089000051C8C2C43308A01312048308A013120DC
:1008A00033308A0131203A308A01312031308A01D7
:1008B00031200D308A0131200A308A013120433045
:1008C0008A01312048308A01312033308A013120B9
:1008D0003A308A01312031308A0131200D308A01CD
:1008E00031200A308A01312043308A0131204830DA
:1008F0008A01312033308A0131203A308A01312097
:1009000031308A0131200D308A0131200A308A01CC
:10091000312007178A11CC2C43308A01312048300E
:100920008A01312033308A0131203A308A01312066
:1009300030308A0131200D308A0131200A308A019D
:10094000312043308A01312048308A013120333050
:100950008A0131203A308A01312030308A01312039
:100960000D308A0131200A308A01312043308A015A
:10097000312048308A01312033308A0131203A3029
:100980008A01312030308A0131200D308A01312036
:100990000A308A01312007130A30DC003230AC0003
:1009A000AD018A010C208A15031CA328DC00640019
:1009B0005C080A3C8A150319A12864005C08303CD5
:1009C0008A11031D4E2D43308A01312048308A019F
:1009D000312031308A0131203A308A013120A90199
:1009E000003085180130A400A5013030B000B101FD
:1009F0008A0137202C308A01312043308A0131208E
:100A000048308A01312032308A0131203A308A015F
:100A10003120A9010030061A0130A400A5013030B0
:100A2000B000B1018A0137202C308A0131204330D7
:100A30008A01312048308A01312033308A01312047
:100A40003A308A013120A901003005180130A40094
:100A5000A5013030B000B1018A0137202C308A0165
:100A6000312043308A01312048308A01312034302E
:100A70008A0131203A308A013120A9010030851ADB
:100A80000130A400A5013030B000B1018A01372047
:100A90000D308A0131200A308A01312064005C085F
:100AA000313C8A11031D902D851443308A01312079
:100AB00048308A01312031308A0131203A308A01B0
:100AC0003120A901003085180130A400A501303083
:100AD000B000B1018A0137200D308A0131200A307F
:100AE0008A01312043308A01312048308A01312087
:100AF00031308A0131203A308A013120A901003099
:100B000085180130A400A5013030B000B1018A0180
:100B100037200D308A0131200A308A0131208717B1
:100B200064005C08353C8A11031DD22D85104330CA
:100B30008A01312048308A01312031308A01312048
:100B40003A308A013120A901003085180130A40013
:100B5000A5013030B000B1018A0137200D308A0183
:100B600031200A308A01312043308A013120483057
:100B70008A01312031308A0131203A308A01312016
:100B8000A901003085180130A400A5013030B00063
:100B9000B1018A0137200D308A0131200A308A01E3
:100BA000312087135C08323C031DFF30FF3AD80028
:100BB000003060190130DA00DB015A08A0005B0840
:100BC000A100A30101308A019E20DA0058088400A8
:100BD0005A088A01B620DA00DB0064005A085B0478
:100BE0008A1103192F2E061643308A01312048300E
:100BF0008A01312032308A0131203A308A01312095
:100C0000A9010030061A0130A400A5013030B0005F
:100C1000B1018A0137200D308A0131200A308A0162
:100C2000312043308A01312048308A01312032306E
:100C30008A0131203A308A013120A9010030061A98
:100C40000130A400A5013030B000B1018A01372085
:100C50000D308A0131200A308A01312087165C0864
:100C6000363C031DFF30FF3AD800003060190130D8
:100C7000DA00DB015A08A0005B08A100A3010130E3
:100C80008A019E20DA00580884005A088A01B6209A
:100C9000DA00DB0064005A085B048A1103198C2E09
:100CA000061243308A01312048308A013120323027
:100CB0008A0131203A308A013120A9010030061A18
:100CC0000130A400A5013030B000B1018A01372005
:100CD0000D308A0131200A308A01312043308A01E7
:100CE000312048308A01312032308A0131203A30B7
:100CF0008A013120A9010030061A0130A400A501A3
:100D00003030B000B1018A0137200D308A01312026
:100D10000A308A01312087125C08333C031DFF3002
:100D2000FF3AD8000030E0190130DA00DB015A0840
:100D3000A0005B08A100A30101308A019E20DA0017
:100D4000580884005A088A01B620DA00DB006400E3
:100D50005A085B048A110319E92E051443308A01ED
:100D6000312048308A01312033308A0131203A3035
:100D70008A013120A901003005180130A400A50125
:100D80003030B000B1018A0137200D308A013120A6
:100D90000A308A01312043308A01312048308A01EB
:100DA000312033308A0131203A308A013120A901C3
:100DB000003005180130A400A5013030B000B101A9
:100DC0008A0137200D308A0131200A308A01312012
:100DD00007175C08373C031DFF30FF3AD80000308E
:100DE000E0190130DA00DB015A08A0005B08A1001D
:100DF000A30101308A019E20DA00580884005A08B5
:100E00008A01B620DA00DB0064005A085B048A110C
:100E10000319462F051043308A01312048308A01DA
:100E2000312033308A0131203A308A013120A90142
:100E3000003005180130A400A5013030B000B10128
:100E40008A0137200D308A0131200A308A01312091
:100E500043308A01312048308A01312033308A0101
:100E600031203A308A013120A901003005180130C3
:100E7000A400A5013030B000B1018A0137200D3047
:100E80008A0131200A308A01312007135C08343C82
:100E9000031DFF30FF3AD800003060180130DA003F
:100EA000DB015A08A0005B08A100A30101308A0100
:100EB0009E20DA00580884005A088A01B620DA0019
:100EC000DB0064005A085B048A110319A22F8516FF
:100ED00043308A01312048308A01312030308A0184
:100EE00031203A308A013120A9010030851A0130C1
:100EF000A400A5013030B000B1018A0137200D30C7
:100F00008A0131200A308A01312043308A013120A0
:100F100048308A01312030308A0131203A308A014C
:100F20003120A9010030851A0130A400A50130301C
:100F3000B000B1018A0137200D308A0131200A301A
:100F40008A0131205C08383C031DFF30FF3AD8008D
:100F5000003060180130DA00DB015A08A0005B089D
:100F6000A100A30101308A019E20DA005808840004
:100F70005A088A01B620DA00DB0064005A085B04D4
:100F80008A110319FE2F851243308A01312048301F
:100F90008A01312030308A0131203A308A013120F3
:100FA000A9010030851A0130A400A5013030B0003D
:100FB000B1018A0137200D308A0131200A308A01BF
:100FC000312043308A01312048308A0131203030CD
:100FD0008A0131203A308A013120A9010030851A76
:100FE0000130A400A5013030B000B1018A013720E2
:100FF0000D308A0131200A308A01312064005C08FA
:10100000393C8A15031DA12843308A01312048301C
:101010008A01312030308A0131203A308A01312072
:10102000A9010030851A0130A400A5013030B000BC
:10103000B1018A0137200D308A0131200A308A013E
:10104000312014308A017C2043308A01312048301D
:101050008A01312031308A0131203A308A01312031
:10106000A901003085180130A400A5013030B0007E
:10107000B1018A0137200D308A0131200A308A01FE
:10108000312014308A017C2043308A0131204830DD
:101090008A01312032308A0131203A308A013120F0
:1010A000A9010030061A0130A400A5013030B000BB
:1010B000B1018A0137200D308A0131200A308A01BE
:1010C000312014308A017C2043308A01312048309D
:1010D0008A01312033308A0131203A308A013120AF
:1010E000A901003005180130A400A5013030B0007E
:1010F000B1018A0137200D308A0131200A308A017E
:10110000312014308A017C20003085180130DF0046
:101110008A157121DE0164000A305E028A15031807
:101120009D280230850683168510C83083128A01F7
:101130007C20DE0A8A15031D8B285F1885145F1C2E
:1011400085108A010F2A8A010F2A83105D188314E3
:10115000031783181914831C191003138310DD1847
:101160008314031783189914831C99100313831095
:101170005D188314031783181A14831C1A100313A1
:101180008310DD188314031783189A14831C9A1094
:101190000313810103105D0D383E84000008D80060
:1011A000840A0008D9005908A10058088A018A2039
:1011B00003105D0D483E840001088000840A800110
:1011C00003105D0D483E84000008D800840A000822
:1011D000D9005808A6005908A7000A30A200A301A8
:1011E0008A01D920D8002508D90003105D0D483E9A
:1011F000840058088000840A5908800003105D0D9F
:10120000403E84000008D800840A0008D900093054
:10121000A600A7015808A2005908A3008A01D920F6
:10122000D8002508D90003105D0D483E8400000851
:10123000DA00840A0008DB005808DA0759080318A6
:10124000013EDB075A08A0005B08A1000A30A2009B
:10125000A3018A01BD20DA002108DB0003105D0D27
:10126000403E84005A088000840A5B088000031016
:101270005D0D483E84000008D800840A0008D900AB
:1012800003105D0D403E84000008DA00840A000867
:10129000DB005608DA025708031C013EDB0258083F
:1012A000A0005908A1005B08A3005A088A01A120E8
:1012B0008A15031D6C295D08503E84000008D80083
:1012C00001305807D800D901D90D5D08503E84007F
:1012D000580880008A1570295D08503E84008001FE
:1012E00008000130DD00640004305D028A15031837
:1012F000C829603084005D08003E8A01012000306A
:10130000031D0130D800D9010130A000A101590806
:10131000A30058088A01A4208A15031DC4290310BC
:101320005D0D383E84008001840A800103105D0D4C
:10133000383E84000008D800840A0008D900D80A82
:101340000319D90A03105D0D383E84005808800047
:10135000840A590880008A15A52003105D0D483EB7
:1013600084000008D800840A0008D9005808A000AA
:101370005908A1000730A300D0308A01A1208A15A6
:10138000031DC4298A159629DD0A8A15031D7329B0
:08139000080063008A15C92959
:02400E00FC3C78
:00000001FF
